{
  "_format": "hh-sol-artifact-1",
  "contractName": "PrivateSalaryReveal",
  "sourceName": "contracts/PrivateSalaryReveal.sol",
  "abi": [
    {
      "inputs": [],
      "stateMutability": "nonpayable",
      "type": "constructor"
    },
    {
      "anonymous": false,
      "inputs": [],
      "name": "RevelationPhaseStarted",
      "type": "event"
    },
    {
      "anonymous": false,
      "inputs": [
        {
          "indexed": true,
          "internalType": "address",
          "name": "user",
          "type": "address"
        },
        {
          "indexed": false,
          "internalType": "bytes32",
          "name": "commitment",
          "type": "bytes32"
        }
      ],
      "name": "SalaryCommitted",
      "type": "event"
    },
    {
      "anonymous": false,
      "inputs": [
        {
          "indexed": true,
          "internalType": "address",
          "name": "user",
          "type": "address"
        },
        {
          "indexed": false,
          "internalType": "uint256",
          "name": "salary",
          "type": "uint256"
        },
        {
          "indexed": false,
          "internalType": "uint256",
          "name": "experience",
          "type": "uint256"
        },
        {
          "indexed": false,
          "internalType": "uint8",
          "name": "role",
          "type": "uint8"
        }
      ],
      "name": "SalaryRevealed",
      "type": "event"
    },
    {
      "inputs": [
        {
          "internalType": "address",
          "name": "",
          "type": "address"
        }
      ],
      "name": "commitments",
      "outputs": [
        {
          "internalType": "bytes32",
          "name": "salaryCommitment",
          "type": "bytes32"
        },
        {
          "internalType": "bytes32",
          "name": "experienceCommitment",
          "type": "bytes32"
        },
        {
          "internalType": "uint8",
          "name": "role",
          "type": "uint8"
        },
        {
          "internalType": "bool",
          "name": "committed",
          "type": "bool"
        },
        {
          "internalType": "bool",
          "name": "revealed",
          "type": "bool"
        },
        {
          "internalType": "uint256",
          "name": "revealedSalary",
          "type": "uint256"
        },
        {
          "internalType": "uint256",
          "name": "revealedExperience",
          "type": "uint256"
        }
      ],
      "stateMutability": "view",
      "type": "function"
    },
    {
      "inputs": [
        {
          "internalType": "uint256",
          "name": "salary",
          "type": "uint256"
        },
        {
          "internalType": "uint256",
          "name": "experience",
          "type": "uint256"
        },
        {
          "internalType": "bytes32",
          "name": "salt",
          "type": "bytes32"
        }
      ],
      "name": "createCommitment",
      "outputs": [
        {
          "internalType": "bytes32",
          "name": "",
          "type": "bytes32"
        },
        {
          "internalType": "bytes32",
          "name": "",
          "type": "bytes32"
        }
      ],
      "stateMutability": "pure",
      "type": "function"
    },
    {
      "inputs": [],
      "name": "getCurrentInsights",
      "outputs": [
        {
          "internalType": "uint256",
          "name": "averageSalary",
          "type": "uint256"
        },
        {
          "internalType": "uint256",
          "name": "averageExperience",
          "type": "uint256"
        },
        {
          "internalType": "uint256",
          "name": "participantCount",
          "type": "uint256"
        }
      ],
      "stateMutability": "view",
      "type": "function"
    },
    {
      "inputs": [],
      "name": "getMedianSalary",
      "outputs": [
        {
          "internalType": "uint256",
          "name": "",
          "type": "uint256"
        }
      ],
      "stateMutability": "view",
      "type": "function"
    },
    {
      "inputs": [
        {
          "internalType": "uint8",
          "name": "role",
          "type": "uint8"
        }
      ],
      "name": "getRoleAverage",
      "outputs": [
        {
          "internalType": "uint256",
          "name": "",
          "type": "uint256"
        }
      ],
      "stateMutability": "view",
      "type": "function"
    },
    {
      "inputs": [],
      "name": "getSalaryRange",
      "outputs": [
        {
          "internalType": "uint256",
          "name": "minSalary",
          "type": "uint256"
        },
        {
          "internalType": "uint256",
          "name": "maxSalary",
          "type": "uint256"
        }
      ],
      "stateMutability": "view",
      "type": "function"
    },
    {
      "inputs": [
        {
          "internalType": "address",
          "name": "user",
          "type": "address"
        }
      ],
      "name": "getUserStatus",
      "outputs": [
        {
          "internalType": "bool",
          "name": "committedStatus",
          "type": "bool"
        },
        {
          "internalType": "bool",
          "name": "revealedStatus",
          "type": "bool"
        },
        {
          "internalType": "uint8",
          "name": "userRole",
          "type": "uint8"
        }
      ],
      "stateMutability": "view",
      "type": "function"
    },
    {
      "inputs": [
        {
          "internalType": "address",
          "name": "user",
          "type": "address"
        }
      ],
      "name": "getUserSubmission",
      "outputs": [
        {
          "internalType": "bool",
          "name": "",
          "type": "bool"
        }
      ],
      "stateMutability": "view",
      "type": "function"
    },
    {
      "inputs": [],
      "name": "insights",
      "outputs": [
        {
          "internalType": "uint256",
          "name": "totalSalary",
          "type": "uint256"
        },
        {
          "internalType": "uint256",
          "name": "totalExperience",
          "type": "uint256"
        },
        {
          "internalType": "uint256",
          "name": "participantCount",
          "type": "uint256"
        }
      ],
      "stateMutability": "view",
      "type": "function"
    },
    {
      "inputs": [],
      "name": "owner",
      "outputs": [
        {
          "internalType": "address",
          "name": "",
          "type": "address"
        }
      ],
      "stateMutability": "view",
      "type": "function"
    },
    {
      "inputs": [
        {
          "internalType": "uint256",
          "name": "",
          "type": "uint256"
        }
      ],
      "name": "participants",
      "outputs": [
        {
          "internalType": "address",
          "name": "",
          "type": "address"
        }
      ],
      "stateMutability": "view",
      "type": "function"
    },
    {
      "inputs": [
        {
          "internalType": "uint256",
          "name": "salary",
          "type": "uint256"
        },
        {
          "internalType": "uint256",
          "name": "experience",
          "type": "uint256"
        },
        {
          "internalType": "bytes",
          "name": "salt",
          "type": "bytes"
        }
      ],
      "name": "revealSalary",
      "outputs": [],
      "stateMutability": "nonpayable",
      "type": "function"
    },
    {
      "inputs": [],
      "name": "revelationPhase",
      "outputs": [
        {
          "internalType": "bool",
          "name": "",
          "type": "bool"
        }
      ],
      "stateMutability": "view",
      "type": "function"
    },
    {
      "inputs": [],
      "name": "startRevelationPhase",
      "outputs": [],
      "stateMutability": "nonpayable",
      "type": "function"
    },
    {
      "inputs": [
        {
          "internalType": "bytes",
          "name": "encryptedSalary",
          "type": "bytes"
        },
        {
          "internalType": "bytes",
          "name": "encryptedExperience",
          "type": "bytes"
        },
        {
          "internalType": "uint8",
          "name": "role",
          "type": "uint8"
        }
      ],
      "name": "submitEncryptedSalary",
      "outputs": [],
      "stateMutability": "nonpayable",
      "type": "function"
    },
    {
      "inputs": [],
      "name": "totalSubmissions",
      "outputs": [
        {
          "internalType": "uint256",
          "name": "",
          "type": "uint256"
        }
      ],
      "stateMutability": "view",
      "type": "function"
    }
  ],
  "bytecode": "0x60806040526000600760006101000a81548160ff02191690831515021790555034801561002b57600080fd5b5033600760016101000a81548173ffffffffffffffffffffffffffffffffffffffff021916908373ffffffffffffffffffffffffffffffffffffffff1602179055506120908061007c6000396000f3fe608060405234801561001057600080fd5b50600436106101005760003560e01c8063973cbd0e11610097578063c72aab6411610066578063c72aab6414610293578063e8fcf723146102c3578063ea0d5dcd146102f9578063ff2c4a251461032b57610100565b8063973cbd0e14610207578063a395401614610225578063a5445c4c14610243578063a5ea7b581461027357610100565b8063603e3362116100d3578063603e3362146101a45780637674fa52146101c05780638da5cb5b146101ca578063926a50c7146101e857610100565b806304f5b993146101055780632c8426cf1461013657806335c1d349146101565780633c54c19414610186575b600080fd5b61011f600480360381019061011a919061138a565b610347565b60405161012d9291906113ec565b60405180910390f35b61013e6103b4565b60405161014d93929190611424565b60405180910390f35b610170600480360381019061016b919061145b565b61040f565b60405161017d91906114c9565b60405180910390f35b61018e61044e565b60405161019b91906114ff565b60405180910390f35b6101be60048036038101906101b99190611660565b610461565b005b6101c8610a7a565b005b6101d2610b53565b6040516101df91906114c9565b60405180910390f35b6101f0610b79565b6040516101fe9291906116cf565b60405180910390f35b61020f610d4a565b60405161021c91906116f8565b60405180910390f35b61022d610d7b565b60405161023a91906116f8565b60405180910390f35b61025d6004803603810190610258919061174c565b610d88565b60405161026a91906116f8565b60405180910390f35b61027b610e02565b60405161028a93929190611424565b60405180910390f35b6102ad60048036038101906102a891906117a5565b610e1a565b6040516102ba91906114ff565b60405180910390f35b6102dd60048036038101906102d891906117a5565b610e72565b6040516102f097969594939291906117e1565b60405180910390f35b610313600480360381019061030e91906117a5565b610edb565b60405161032293929190611850565b60405180910390f35b61034560048036038101906103409190611887565b610fc4565b005b6000806000858460405160200161035f929190611954565b604051602081830303815290604052905060008585604051602001610385929190611954565b604051602081830303815290604052905081805190602001208180519060200120935093505050935093915050565b6000806000806002800154036103d457600080600092509250925061040a565b60028001546002600001546103e991906119de565b9250600280015460026001015461040091906119de565b9150600280015490505b909192565b6001818154811061041f57600080fd5b906000526020600020016000915054906101000a900473ffffffffffffffffffffffffffffffffffffffff1681565b600760009054906101000a900460ff1681565b6000803373ffffffffffffffffffffffffffffffffffffffff1673ffffffffffffffffffffffffffffffffffffffff16815260200190815260200160002060020160019054906101000a900460ff166104ef576040517f08c379a00000000000000000000000000000000000000000000000000000000081526004016104e690611a6c565b60405180910390fd5b6000803373ffffffffffffffffffffffffffffffffffffffff1673ffffffffffffffffffffffffffffffffffffffff16815260200190815260200160002060020160029054906101000a900460ff161561057e576040517f08c379a000000000000000000000000000000000000000000000000000000000815260040161057590611ad8565b60405180910390fd5b600760009054906101000a900460ff166105cd576040517f08c379a00000000000000000000000000000000000000000000000000000000081526004016105c490611b44565b60405180910390fd5b61753083101580156105e257506207a1208311155b610621576040517f08c379a000000000000000000000000000000000000000000000000000000000815260040161061890611bb0565b60405180910390fd5b6032821115610665576040517f08c379a000000000000000000000000000000000000000000000000000000000815260040161065c90611c1c565b60405180910390fd5b6000838260405160200161067a929190611cad565b6040516020818303038152906040529050600083836040516020016106a0929190611cad565b60405160208183030381529060405290506000828051906020012090506000828051906020012090506000803373ffffffffffffffffffffffffffffffffffffffff1673ffffffffffffffffffffffffffffffffffffffff168152602001908152602001600020600001548214801561075957506000803373ffffffffffffffffffffffffffffffffffffffff1673ffffffffffffffffffffffffffffffffffffffff1681526020019081526020016000206001015481145b610798576040517f08c379a000000000000000000000000000000000000000000000000000000000815260040161078f90611d21565b60405180910390fd5b60016000803373ffffffffffffffffffffffffffffffffffffffff1673ffffffffffffffffffffffffffffffffffffffff16815260200190815260200160002060020160026101000a81548160ff021916908315150217905550866000803373ffffffffffffffffffffffffffffffffffffffff1673ffffffffffffffffffffffffffffffffffffffff16815260200190815260200160002060030181905550856000803373ffffffffffffffffffffffffffffffffffffffff1673ffffffffffffffffffffffffffffffffffffffff1681526020019081526020016000206004018190555086600260000160008282546108939190611d41565b9250508190555085600260010160008282546108af9190611d41565b925050819055506002800160008154809291906108cb90611d75565b919050555086600260030160008060003373ffffffffffffffffffffffffffffffffffffffff1673ffffffffffffffffffffffffffffffffffffffff16815260200190815260200160002060020160009054906101000a900460ff1660ff1660ff168152602001908152602001600020600082825461094a9190611d41565b92505081905550600260040160008060003373ffffffffffffffffffffffffffffffffffffffff1673ffffffffffffffffffffffffffffffffffffffff16815260200190815260200160002060020160009054906101000a900460ff1660ff1660ff16815260200190815260200160002060008154809291906109cc90611d75565b91905055503373ffffffffffffffffffffffffffffffffffffffff167f491d2ab6f75a256af56cee00017f46a2b4f1ab950d1dc297c30f31795fd66e7a88886000803373ffffffffffffffffffffffffffffffffffffffff1673ffffffffffffffffffffffffffffffffffffffff16815260200190815260200160002060020160009054906101000a900460ff16604051610a6993929190611dbd565b60405180910390a250505050505050565b600760019054906101000a900473ffffffffffffffffffffffffffffffffffffffff1673ffffffffffffffffffffffffffffffffffffffff163373ffffffffffffffffffffffffffffffffffffffff1614610b0a576040517f08c379a0000000000000000000000000000000000000000000000000000000008152600401610b0190611e40565b60405180910390fd5b6001600760006101000a81548160ff0219169083151502179055507fa195a51aa216827a2c7d56e21de202810abbd77e094bbd3e7706ab8f20c8f67d60405160405180910390a1565b600760019054906101000a900473ffffffffffffffffffffffffffffffffffffffff1681565b6000806000600280015403610b945760008091509150610d46565b7fffffffffffffffffffffffffffffffffffffffffffffffffffffffffffffffff91506000905060005b600180549050811015610d1857600080600060018481548110610be457610be3611e60565b5b9060005260206000200160009054906101000a900473ffffffffffffffffffffffffffffffffffffffff1673ffffffffffffffffffffffffffffffffffffffff1673ffffffffffffffffffffffffffffffffffffffff1681526020019081526020016000206040518060e001604052908160008201548152602001600182015481526020016002820160009054906101000a900460ff1660ff1660ff1681526020016002820160019054906101000a900460ff161515151581526020016002820160029054906101000a900460ff16151515158152602001600382015481526020016004820154815250509050806080015115610d0457838160a001511015610cef578060a0015193505b828160a001511115610d03578060a0015192505b5b508080610d1090611d75565b915050610bbe565b507fffffffffffffffffffffffffffffffffffffffffffffffffffffffffffffffff8203610d4557600091505b5b9091565b600080600280015403610d605760009050610d78565b6002800154600260000154610d7591906119de565b90505b90565b6000600180549050905090565b600080600260040160008460ff1660ff1681526020019081526020016000205403610db65760009050610dfd565b600260040160008360ff1660ff16815260200190815260200160002054600260030160008460ff1660ff16815260200190815260200160002054610dfa91906119de565b90505b919050565b60028060000154908060010154908060020154905083565b60008060008373ffffffffffffffffffffffffffffffffffffffff1673ffffffffffffffffffffffffffffffffffffffff16815260200190815260200160002060020160019054906101000a900460ff169050919050565b60006020528060005260406000206000915090508060000154908060010154908060020160009054906101000a900460ff16908060020160019054906101000a900460ff16908060020160029054906101000a900460ff16908060030154908060040154905087565b6000806000806000808673ffffffffffffffffffffffffffffffffffffffff1673ffffffffffffffffffffffffffffffffffffffff1681526020019081526020016000206040518060e001604052908160008201548152602001600182015481526020016002820160009054906101000a900460ff1660ff1660ff1681526020016002820160019054906101000a900460ff161515151581526020016002820160029054906101000a900460ff16151515158152602001600382015481526020016004820154815250509050806060015181608001518260400151935093509350509193909250565b6000803373ffffffffffffffffffffffffffffffffffffffff1673ffffffffffffffffffffffffffffffffffffffff16815260200190815260200160002060020160019054906101000a900460ff1615611053576040517f08c379a000000000000000000000000000000000000000000000000000000000815260040161104a90611edb565b60405180910390fd5b60018160ff161015801561106b575060048160ff1611155b6110aa576040517f08c379a00000000000000000000000000000000000000000000000000000000081526004016110a190611f47565b60405180910390fd5b60008351116110ee576040517f08c379a00000000000000000000000000000000000000000000000000000000081526004016110e590611fb3565b60405180910390fd5b6000825111611132576040517f08c379a00000000000000000000000000000000000000000000000000000000081526004016111299061201f565b60405180910390fd5b6000838051906020012090506000838051906020012090506040518060e001604052808381526020018281526020018460ff1681526020016001151581526020016000151581526020016000815260200160008152506000803373ffffffffffffffffffffffffffffffffffffffff1673ffffffffffffffffffffffffffffffffffffffff168152602001908152602001600020600082015181600001556020820151816001015560408201518160020160006101000a81548160ff021916908360ff16021790555060608201518160020160016101000a81548160ff02191690831515021790555060808201518160020160026101000a81548160ff02191690831515021790555060a0820151816003015560c082015181600401559050506001339080600181540180825580915050600190039060005260206000200160009091909190916101000a81548173ffffffffffffffffffffffffffffffffffffffff021916908373ffffffffffffffffffffffffffffffffffffffff1602179055503373ffffffffffffffffffffffffffffffffffffffff167fed7653e9b3caded69c3dc72a7c09cd3945d6da1c2f1a70356ccc0f1c888cba02836040516112fb919061203f565b60405180910390a25050505050565b6000604051905090565b600080fd5b600080fd5b6000819050919050565b6113318161131e565b811461133c57600080fd5b50565b60008135905061134e81611328565b92915050565b6000819050919050565b61136781611354565b811461137257600080fd5b50565b6000813590506113848161135e565b92915050565b6000806000606084860312156113a3576113a2611314565b5b60006113b18682870161133f565b93505060206113c28682870161133f565b92505060406113d386828701611375565b9150509250925092565b6113e681611354565b82525050565b600060408201905061140160008301856113dd565b61140e60208301846113dd565b9392505050565b61141e8161131e565b82525050565b60006060820190506114396000830186611415565b6114466020830185611415565b6114536040830184611415565b949350505050565b60006020828403121561147157611470611314565b5b600061147f8482850161133f565b91505092915050565b600073ffffffffffffffffffffffffffffffffffffffff82169050919050565b60006114b382611488565b9050919050565b6114c3816114a8565b82525050565b60006020820190506114de60008301846114ba565b92915050565b60008115159050919050565b6114f9816114e4565b82525050565b600060208201905061151460008301846114f0565b92915050565b600080fd5b600080fd5b6000601f19601f8301169050919050565b7f4e487b7100000000000000000000000000000000000000000000000000000000600052604160045260246000fd5b61156d82611524565b810181811067ffffffffffffffff8211171561158c5761158b611535565b5b80604052505050565b600061159f61130a565b90506115ab8282611564565b919050565b600067ffffffffffffffff8211156115cb576115ca611535565b5b6115d482611524565b9050602081019050919050565b82818337600083830152505050565b60006116036115fe846115b0565b611595565b90508281526020810184848401111561161f5761161e61151f565b5b61162a8482856115e1565b509392505050565b600082601f8301126116475761164661151a565b5b81356116578482602086016115f0565b91505092915050565b60008060006060848603121561167957611678611314565b5b60006116878682870161133f565b93505060206116988682870161133f565b925050604084013567ffffffffffffffff8111156116b9576116b8611319565b5b6116c586828701611632565b9150509250925092565b60006040820190506116e46000830185611415565b6116f16020830184611415565b9392505050565b600060208201905061170d6000830184611415565b92915050565b600060ff82169050919050565b61172981611713565b811461173457600080fd5b50565b60008135905061174681611720565b92915050565b60006020828403121561176257611761611314565b5b600061177084828501611737565b91505092915050565b611782816114a8565b811461178d57600080fd5b50565b60008135905061179f81611779565b92915050565b6000602082840312156117bb576117ba611314565b5b60006117c984828501611790565b91505092915050565b6117db81611713565b82525050565b600060e0820190506117f6600083018a6113dd565b61180360208301896113dd565b61181060408301886117d2565b61181d60608301876114f0565b61182a60808301866114f0565b61183760a0830185611415565b61184460c0830184611415565b98975050505050505050565b600060608201905061186560008301866114f0565b61187260208301856114f0565b61187f60408301846117d2565b949350505050565b6000806000606084860312156118a05761189f611314565b5b600084013567ffffffffffffffff8111156118be576118bd611319565b5b6118ca86828701611632565b935050602084013567ffffffffffffffff8111156118eb576118ea611319565b5b6118f786828701611632565b925050604061190886828701611737565b9150509250925092565b6000819050919050565b61192d6119288261131e565b611912565b82525050565b6000819050919050565b61194e61194982611354565b611933565b82525050565b6000611960828561191c565b602082019150611970828461193d565b6020820191508190509392505050565b7f4e487b7100000000000000000000000000000000000000000000000000000000600052601260045260246000fd5b7f4e487b7100000000000000000000000000000000000000000000000000000000600052601160045260246000fd5b60006119e98261131e565b91506119f48361131e565b925082611a0457611a03611980565b5b828204905092915050565b600082825260208201905092915050565b7f4e6f7420636f6d6d697474656400000000000000000000000000000000000000600082015250565b6000611a56600d83611a0f565b9150611a6182611a20565b602082019050919050565b60006020820190508181036000830152611a8581611a49565b9050919050565b7f416c72656164792072657665616c656400000000000000000000000000000000600082015250565b6000611ac2601083611a0f565b9150611acd82611a8c565b602082019050919050565b60006020820190508181036000830152611af181611ab5565b9050919050565b7f526576656c6174696f6e207068617365206e6f74206163746976650000000000600082015250565b6000611b2e601b83611a0f565b9150611b3982611af8565b602082019050919050565b60006020820190508181036000830152611b5d81611b21565b9050919050565b7f496e76616c69642073616c617279000000000000000000000000000000000000600082015250565b6000611b9a600e83611a0f565b9150611ba582611b64565b602082019050919050565b60006020820190508181036000830152611bc981611b8d565b9050919050565b7f496e76616c696420657870657269656e63650000000000000000000000000000600082015250565b6000611c06601283611a0f565b9150611c1182611bd0565b602082019050919050565b60006020820190508181036000830152611c3581611bf9565b9050919050565b600081519050919050565b600081905092915050565b60005b83811015611c70578082015181840152602081019050611c55565b60008484015250505050565b6000611c8782611c3c565b611c918185611c47565b9350611ca1818560208601611c52565b80840191505092915050565b6000611cb9828561191c565b602082019150611cc98284611c7c565b91508190509392505050565b7f436f6d6d69746d656e74206d69736d6174636800000000000000000000000000600082015250565b6000611d0b601383611a0f565b9150611d1682611cd5565b602082019050919050565b60006020820190508181036000830152611d3a81611cfe565b9050919050565b6000611d4c8261131e565b9150611d578361131e565b9250828201905080821115611d6f57611d6e6119af565b5b92915050565b6000611d808261131e565b91507fffffffffffffffffffffffffffffffffffffffffffffffffffffffffffffffff8203611db257611db16119af565b5b600182019050919050565b6000606082019050611dd26000830186611415565b611ddf6020830185611415565b611dec60408301846117d2565b949350505050565b7f4e6f74206f776e65720000000000000000000000000000000000000000000000600082015250565b6000611e2a600983611a0f565b9150611e3582611df4565b602082019050919050565b60006020820190508181036000830152611e5981611e1d565b9050919050565b7f4e487b7100000000000000000000000000000000000000000000000000000000600052603260045260246000fd5b7f416c726561647920636f6d6d6974746564000000000000000000000000000000600082015250565b6000611ec5601183611a0f565b9150611ed082611e8f565b602082019050919050565b60006020820190508181036000830152611ef481611eb8565b9050919050565b7f496e76616c696420726f6c650000000000000000000000000000000000000000600082015250565b6000611f31600c83611a0f565b9150611f3c82611efb565b602082019050919050565b60006020820190508181036000830152611f6081611f24565b9050919050565b7f456d7074792073616c6172792064617461000000000000000000000000000000600082015250565b6000611f9d601183611a0f565b9150611fa882611f67565b602082019050919050565b60006020820190508181036000830152611fcc81611f90565b9050919050565b7f456d70747920657870657269656e636520646174610000000000000000000000600082015250565b6000612009601583611a0f565b915061201482611fd3565b602082019050919050565b6000602082019050818103600083015261203881611ffc565b9050919050565b600060208201905061205460008301846113dd565b9291505056fea2646970667358221220cb6b1655880020f582a86a085d63c4bc2c94f2daee3c10b5b31ab52eccf4b8b964736f6c63430008130033",
  "linkReferences": {},
  "deployedLinkReferences": {}
}